:020000040800F2
:1000000000000120CD2300084123000847230008F9
:100010004D23000853230008592300080000000066
:100020000000000000000000000000005F23000846
:100030006D230008000000007B23000889230008CE
:100040001D2400081D2400081D2400081D2400088C
:100050001D2400081D2400081D2400081D2400087C
:100060001D2400081D2400081D2400081D2400086C
:100070001D2400081D2400081D2400081D2400085C
:100080001D2400081D2400081D2400080000000095
:100090000000000000000000000000001D24000817
:1000A0001D2400081D2400081D2400081D2400082C
:1000B0001D2400081D2400081D2400081D2400081C
:1000C0001D2400081D2400081D2400081D2400080C
:1000D0001D240008952300081D24000800000000CE
:1000E0001D2400081D2400081D2400080000000035
:1000F0000000000000000000000000001D240008B7
:10010000000000001D2400081D2400081D24000814
:1001100000000000000000000000000000000000DF
:100120001D2400081D2400081D2400081D240008AB
:100130001D24000800000000000000000000000076
:100140000000000000000000000000001D24000866
:100150001D2400081D2400081D2400081D2400087B
:100160001D2400081D2400080000000000000000FD
:10017000000000000000000000000000000000007F
:10018000000000001D240008000000000000000026
:040190001D24000822
:1001980010B5054C237833B9044B13B10448AFF3B9
:1001A80000800123237010BD14000020000000000F
:1001B8005067000808B5034B1BB103490348AFF368
:1001C800008008BD000000001800002050670008EB
:1001D80081F0004102E000BF83F0004330B54FEAF0
:1001E80041044FEA430594EA050F08BF90EA020F5D
:1001F8001FBF54EA000C55EA020C7FEA645C7FEAF0
:10020800655C00F0E2804FEA5454D4EB5555B8BF12
:100218006D420CDD2C4480EA020281EA030382EA83
:10022800000083EA010180EA020281EA0303362D15
:1002380088BF30BD11F0004F4FEA01314FF4801CE8
:100248004CEA113102D0404261EB410113F0004FFA
:100258004FEA03334CEA133302D0524263EB4303B1
:1002680094EA050F00F0A780A4F10104D5F1200E4F
:100278000DDB02FA0EFC22FA05F2801841F10001AA
:1002880003FA0EF2801843FA05F359410EE0A5F17E
:1002980020050EF1200E012A03FA0EFC28BF4CF0AF
:1002A800020C43FA05F3C01851EBE37101F0004565
:1002B80007D54FF0000EDCF1000C7EEB00006EEB72
:1002C8000101B1F5801F1BD3B1F5001F0CD34908FC
:1002D8005FEA30004FEA3C0C04F101044FEA445253
:1002E80012F5800F80F09A80BCF1004F08BF5FEADA
:1002F800500C50F1000041EB045141EA050130BDBA
:100308005FEA4C0C404141EB0101013C28BFB1F5CB
:10031800801FE9D291F0000F04BF01460020B1FA16
:1003280081F308BF2033A3F10B03B3F120020CDAE9
:100338000C3208DD02F1140CC2F10C0201FA0CF0C7
:1003480021FA02F10CE002F11402D8BFC2F1200C2C
:1003580001FA02F120FA0CFCDCBF41EA0C019040E2
:10036800E41AA2BF01EB0451294330BD6FEA04042B
:100378001F3C1CDA0C340EDC04F11404C4F1200216
:1003880020FA04F001FA02F340EA030021FA04F328
:1003980045EA030130BDC4F10C04C4F1200220FA7F
:1003A80002F001FA04F340EA0300294630BD21FABD
:1003B80004F0294630BD94F0000F83F4801306BF83
:1003C80081F480110134013D4EE77FEA645C18BF77
:1003D8007FEA655C29D094EA050F08BF90EA020F0E
:1003E80005D054EA000C04BF1946104630BD91EA06
:1003F800030F1EBF0021002030BD5FEA545C05D109
:100408004000494128BF41F0004130BD14F5800447
:100418003CBF01F5801130BD01F0004545F0FE41BB
:1004280041F470014FF0000030BD7FEA645C1ABFF0
:10043800194610467FEA655C1CBF0B46024650EA27
:10044800013406BF52EA033591EA030F41F4002153
:1004580030BD00BF90F0000F04BF0021704730B5D9
:100468004FF4806404F132044FF000054FF00001AE
:1004780050E700BF90F0000F04BF0021704730B56F
:100488004FF4806404F1320410F0004548BF404244
:100498004FF000013EE700BF42004FEAE2014FEA99
:1004A80031014FEA02701FBF12F07F4393F07F4F74
:1004B80081F06051704732F07F4208BF704793F077
:1004C8007F4F04BF41F40021704730B54FF460748A
:1004D80001F0004521F000411CE700BF50EA01028D
:1004E80008BF704730B54FF000050AE050EA010236
:1004F80008BF704730B511F0004502D5404261EBA6
:1005080041014FF4806404F132045FEA915C3FF4E6
:10051800D8AE4FF003025FEADC0C18BF03325FEA83
:10052800DC0C18BF033202EBDC02C2F1200300FA34
:1005380003FC20FA02F001FA03FE40EA0E0021FA59
:1005480002F11444BDE600BF70B54FF0FF0C4CF447
:10055800E06C1CEA11541DBF1CEA135594EA0C0FF9
:1005680095EA0C0F00F0DEF82C4481EA030621EA34
:100578004C5123EA4C5350EA013518BF52EA03356F
:1005880041F4801143F4801338D0A0FB02CE4FF021
:100598000005E1FB02E506F00042E0FB03E54FF051
:1005A8000006E1FB03569CF0000F18BF4EF0010E49
:1005B800A4F1FF04B6F5007F64F5407404D25FEA45
:1005C8004E0E6D4146EB060642EAC62141EA5551F8
:1005D8004FEAC52040EA5E504FEACE2EB4F1FD0C3A
:1005E80088BFBCF5E06F1ED8BEF1004F08BF5FEAB8
:1005F800500E50F1000041EB045170BD06F000466A
:1006080046EA010140EA020081EA0301B4EB5C0416
:10061800C2BFD4EB0C0541EA045170BD41F480110E
:100628004FF0000E013C00F3AB8014F1360FDEBF33
:10063800002001F0004170BDC4F10004203C35DA0F
:100648000C341BDC04F11404C4F1200500FA05F392
:1006580020FA04F001FA05F240EA020001F0004233
:1006680021F0004110EBD37021FA04F642EB0601A9
:100678005EEA430E08BF20EAD37070BDC4F10C04D3
:10068800C4F1200500FA04F320FA05F001FA04F297
:1006980040EA020001F0004110EBD37041F1000183
:1006A8005EEA430E08BF20EAD37070BDC4F120058E
:1006B80000FA05F24EEA020E20FA04F301FA05F2F6
:1006C80043EA020321FA04F001F0004121FA04F29E
:1006D80020EA020000EBD3705EEA430E08BF20EA6E
:1006E800D37070BD94F0000F0FD101F000464000A8
:1006F80041EB010111F4801F08BF013CF7D041EA2A
:10070800060195F0000F18BF704703F0004652002D
:1007180043EB030313F4801F08BF013DF7D043EAFE
:100728000603704794EA0C0F0CEA135518BF95EAB4
:100738000C0F0CD050EA410618BF52EA4306D1D13B
:1007480081EA030101F000414FF0000070BD50EA5A
:10075800410606BF1046194652EA430619D094EAE4
:100768000C0F02D150EA013613D195EA0C0F05D1CE
:1007780052EA03361CBF104619460AD181EA030122
:1007880001F0004141F0FE4141F470014FF00000DA
:1007980070BD41F0FE4141F4780170BD70B54FF075
:1007A800FF0C4CF4E06C1CEA11541DBF1CEA1355F5
:1007B80094EA0C0F95EA0C0F00F0A7F8A4EB0504D7
:1007C80081EA030E52EA03354FEA013100F08880CE
:1007D8004FEA03334FF0805545EA131343EA126397
:1007E8004FEA022245EA111545EA10654FEA00264C
:1007F8000EF000419D4208BF964244F1FD0404F505
:10080800407402D25B084FEA3202B61A65EB030560
:100818005B084FEA32024FF480104FF4002CB6EB1D
:10082800020E75EB030E22BFB61A754640EA0C009D
:100838005B084FEA3202B6EB020E75EB030E22BFDD
:10084800B61A754640EA5C005B084FEA3202B6EB1E
:10085800020E75EB030E22BFB61A754640EA9C00DD
:100868005B084FEA3202B6EB020E75EB030E22BFAD
:10087800B61A754640EADC0055EA060E18D04FEA6B
:10088800051545EA16754FEA06164FEAC30343EA0B
:1008980052734FEAC2025FEA1C1CC0D111F4801FD8
:1008A8000BD141EA00014FF000004FF0004CB6E7D1
:1008B80011F4801F04BF01430020B4F1FD0C88BF70
:1008C800BCF5E06F3FF6AFAEB5EB030C04BFB6EB7B
:1008D800020C5FEA500C50F1000041EB045170BD6E
:1008E8000EF0004E4EEA113114EB5C04C2BFD4EB9B
:1008F8000C0541EA045170BD41F480114FF0000E1F
:10090800013C90E645EA060E8DE60CEA135594EA9A
:100918000C0F08BF95EA0C0F3FF43BAF94EA0C0F9D
:100928000AD150EA01347FF434AF95EA0C0F7FF412
:1009380025AF104619462CE795EA0C0F06D152EA66
:1009480003353FF4FDAE1046194622E750EA41064A
:1009580018BF52EA43067FF4C5AE50EA41047FF45B
:100968000DAF52EA43057FF4EBAE12E74FF0FF3CC0
:1009780006E000BF4FF0010C02E000BF4FF0010C91
:100988004DF804CD4FEA410C7FEA6C5C4FEA430C0A
:1009980018BF7FEA6C5C1BD001B050EA410C0CBF59
:1009A80052EA430C91EA030F02BF90EA020F0020BB
:1009B800704710F1000F91EA030F58BF994208BF22
:1009C80090422CBFD8176FEAE37040F001007047DF
:1009D8004FEA410C7FEA6C5C02D150EA013C07D136
:1009E8004FEA430C7FEA6C5CD6D152EA033CD3D081
:1009F8005DF8040B704700BF8446104662468C467B
:100A08001946634600E000BF01B5FFF7B7FF0028AD
:100A180048BF10F1000F01BD4DF808EDFFF7F4FFD6
:100A28000CBF012000205DF808FB00BF4DF808ED61
:100A3800FFF7EAFF34BF012000205DF808FB00BF84
:100A48004DF808EDFFF7E0FF94BF012000205DF8A6
:100A580008FB00BF4DF808EDFFF7CEFF94BF01205B
:100A680000205DF808FB00BF4DF808EDFFF7C4FF54
:100A780034BF012000205DF808FB00BF4A0011D2F6
:100A880012F5001211D20DD56FF47873B3EB6252E0
:100A98000ED44FEAC12343F0004343EA505323FAEC
:100AA80002F070474FF00000704750EA013002D161
:100AB8004FF0FF3070474FF0000070474FEA410297
:100AC800B2F1E04324BFB3F5001CDCF1FE5C0DD9A4
:100AD80001F0004C4FEAC0024CEA5070B2F1004FEE
:100AE80040EB830008BF20F00100704711F0804FF1
:100AF80021D113F13872BCBF01F00040704741F4B6
:100B080080114FEA5252C2F11802C2F1200C10FAB9
:100B18000CF320FA02F018BF40F001004FEAC1239D
:100B28004FEAD32303FA0CFC40EA0C0023FA02F341
:100B38004FEA4303CCE77FEA625307D150EA013317
:100B48001EBF4FF0FE4040F44000704701F00040E7
:100B580040F0FE4040F40000704700BF53B94AB966
:100B6800002908BF00281CBF4FF0FF314FF0FF30AD
:100B780000F070B9ADF1080C6DE904CE00F006F88C
:100B8800DDF804E0DDE9022304B070472DE9F04701
:100B9800089E0D4604460F46002B4AD18A429446C9
:100BA80065D9B2FA82F343B102FA03FCC3F1200219
:100BB8009F4020FA02F217439C404FEA1C4E1FFA4E
:100BC8008CF5B7FBFEF1220C0EFB117742EA0742C7
:100BD80001FB05F090420AD91CEB020201F1FF3734
:100BE80080F01C81904240F2198102396244121A45
:100BF800A4B2B2FBFEF00EFB102244EA024400FB52
:100C080005F5A5420AD91CEB040400F1FF3280F077
:100C18000781A54240F204816444023840EA014059
:100C2800641B00211EB1DC400023C6E90043BDE877
:100C3800F0878B4208D9002E00F0ED800021C6E92C
:100C480000050846BDE8F087B3FA83F1002949D1C9
:100C5800AB4202D3824200F2F880841A65EB0302A9
:100C680001201746002EE2D0C6E90047DFE702B9A7
:100C7800FFDEB2FA82F3002B40F090808A1A4FEA26
:100C88001C471FFA8CFE0121B2FBF7F507FB152064
:100C9800220C42EA00420EFB05F0904208D91CEBF8
:100CA800020205F1FF3802D2904200F2CB8045469D
:100CB800121AA4B2B2FBF7F007FB102244EA02446E
:100CC8000EFB00FEA64508D91CEB040400F1FF3218
:100CD80002D2A64500F2BB801046A4EB0E0440EAFF
:100CE80005409FE7C1F120078B4022FA07FC4CEA38
:100CF800030C05FA01F420FA07F3FD404FEA1C49FA
:100D08002343B5FBF9F81FFA8CFE09FB18551C0C98
:100D180044EA054408FB0EF5A54202FA01F200FA7E
:100D280001F00BD91CEB040408F1FF3A80F088802D
:100D3800A54240F28580A8F102086444641B9DB274
:100D4800B4FBF9F309FB134445EA044403FB0EFE24
:100D5800A64508D91CEB040403F1FF356CD2A6455F
:100D68006AD9023B644443EA0843A3FB0295A4EB17
:100D78000E04AC42C846AE4656D353D056B1B0EB7B
:100D8800080264EB0E0404FA07F7CA40CC40174384
:100D9800C6E9007418460021BDE8F087C3F12001B8
:100DA80002FA03FC20FA01F225FA01F19D402A43D8
:100DB8004FEA1C471FFA8CFEB1FBF7F007FB101532
:100DC800110C41EA054100FB0EF58D4204FA03F4CB
:100DD80008D91CEB010100F1FF382FD28D422DD923
:100DE80002386144491B92B2B1FBF7F507FB1511B4
:100DF80042EA014205FB0EF1914208D91CEB0202BE
:100E080005F1FF3816D2914214D9023D6244521AB4
:100E180045EA004138E73146304608E73946E6E614
:100E28001046FBE64845A9D2B9EB020865EB0C0E63
:100E3800013BA3E74546EAE72B4694E74046D1E75E
:100E4800D0467BE7023D624432E708460AE764443D
:100E5800023842E7704700BF80B582B000AF7860C3
:100E68000B467B809FED2C0A012000F051FF9FED7F
:100E78002A0A002000F04CFF9FED270A022000F00C
:100E880047FF9FED260A032000F042FFB2EE0E0A4C
:100E9800042000F03DFF4FF4FA6001F02FFB7B685F
:100EA8005B68012B05D17B681B681B687A885A63CD
:100EB8001CE07B685B68022B05D17B681B681B689C
:100EC8007A889A6312E07B685B68032B05D17B689C
:100ED8001B681B687A88DA6308E07B685B68042B08
:100EE80004D17B681B681B687A881A647A687B68F7
:100EF8005B681946104603F001FDB2EE040A0A20A9
:100F080000F006FF9FED060A0C2000F001FF00BF6D
:100F18000837BD4680BD00BF00000C4300002A43CF
:100F28000000164380B582B000AF78600B467B8026
:100F38007B685B68012B05D17B681B681B687A8816
:100F48005A631CE07B685B68022B05D17B681B68D1
:100F58001B687A889A6312E07B685B68032B05D16B
:100F68007B681B681B687A88DA6308E07B685B68C3
:100F7800042B04D17B681B681B687A881A647A681A
:100F88007B685B681946104603F0B8FC9FED0E0AB3
:100F9800012000F0BDFE9FED0C0A002000F0B8FE15
:100FA8009FED090A022000F0B3FE9FED080A032016
:100FB80000F0AEFEB2EE0E0A042000F0A9FE00BF5B
:100FC8000837BD4680BD00BF00000C4300002A431F
:100FD80080B582B000AF78600B467B807B685B6829
:100FE800012B05D17B681B681B687A885A631CE053
:100FF8007B685B68022B05D17B681B681B687A8855
:101008009A6312E07B685B68032B05D17B681B68D9
:101018001B687A88DA6308E07B685B68042B04D174
:101028007B681B681B687A881A647A687B685B68C7
:101038001946104603F062FC9FED230A0C2000F0CD
:1010480067FE9FED220A0A2000F062FE40F6B830E3
:1010580001F054FA9FED1E0A012000F059FE9FEDA1
:101068001C0A002000F054FE9FED190A022000F02F
:101078004FFE9FED180A032000F04AFEB2EE0E0A5A
:10108800042000F045FE41F2883001F037FAB2EE54
:10109800040A012000F03CFE9FED0F0A002000F03A
:1010A80037FE9FED0D0A022000F032FE9FED0B0A7D
:1010B800032000F02DFE9FED090A042000F028FE11
:1010C80000BF0837BD4680BD00005C420000A0425A
:1010D80000000C4300002A43000000000000964274
:1010E80080B500AF01F098F900F04CF800F0C6FBAD
:1010F80000F0B2F800F0DEF800F0CEF900F078FA6F
:1011080000F004FB00F048FB00F06AFB00F01CFA5A
:1011180000F05EF900F088FB154800F055FE01224A
:101128001449154804F040FB144B1B78DBB2012B23
:10113800F5D1124B00221A700E4B1B78012B04D1EB
:1011480041210F48FFF744FFE9E70A4B1B78022BC0
:1011580004D141210A48FFF77FFEE0E7054B1B78E1
:10116800032BDCD141210648FFF7DCFED7E700BF9F
:10117800300000200C030020C40200200D030020D2
:101188000000002080B594B000AF07F120033022A2
:101198000021184605F02CFA07F10C0300221A600A
:1011A8005A609A60DA601A610023BB60284B1B6C96
:1011B800274A43F080531364254B1B6C03F080537C
:1011C800BB60BB6800237B60224B1B6823F4404351
:1011D800204A43F4004313601E4B1B6803F440434A
:1011E8007B607B6802233B620123FB6210233B6325
:1011F8000223BB630023FB6308233B6448237B640F
:101208000223BB640423FB6407F12003184602F0A1
:101218007FFE0346002B01D000F0BCFB0F23FB60D0
:1012280002233B6100237B614FF48053BB610023A1
:10123800FB6107F10C030221184603F0E1F80346AD
:10124800002B01D000F0A6FB00BF5037BD4680BD83
:10125800003802400070004080B500AF124B134ABE
:101268001A60114B124A5A600F4B00229A600E4BBB
:101278000022DA600C4B4FF480421A610A4B0022BC
:101288005A61094B00229A61074B0022DA61064B2A
:1012980000221A62044801F097FC0346002B01D093
:1012A80000F078FB00BF80BD3000002000540040F3
:1012B800A086010080B592B000AF07F1400300227C
:1012C8001A605A6007F1240300221A605A609A6073
:1012D800DA601A615A619A613B1D20220021184682
:1012E80005F086F9384B394A1A60374B47225A605D
:1012F800354B00229A60344B6322DA60324B00226D
:101308001A61314B00225A612F4B00229A612E48F4
:1013180003F0A5FA0346002B01D000F03BFB0023A5
:101328003B6400237B6407F140031946264804F018
:101338002BF90346002B01D000F02CFB60237B62C5
:101348000023BB620023FB6200233B6300237B6313
:101358000023BB630023FB6307F124030022194623
:10136800194803F0AFFC0346002B01D000F012FB34
:1013780007F124030C221946134803F0A3FC034683
:10138800002B01D000F006FB00237B600023BB602C
:101398000023FB6000233B6100237B614FF4005373
:1013A800BB6100233B623B1D1946074804F05AF90C
:1013B8000346002B01D000F0EDFA034800F0A2FE2E
:1013C80000BF4837BD4680BD8400002000000140B2
:1013D80080B58AB000AF07F1200300221A605A6076
:1013E8003B1D00221A605A609A60DA601A615A61DD
:1013F8009A61284B4FF080421A60264B00225A60AF
:10140800244B00229A60234B4FF0FF32DA60214BC5
:1014180000221A611F4B00229A611E4803F01FFA2E
:101428000346002B01D000F0B5FA00233B620023ED
:101438007B6207F120031946164804F0A5F8034615
:10144800002B01D000F0A6FA60237B600023BB606C
:101458000023FB6000237B613B1D002219460D48D9
:1014680003F030FC0346002B01D000F093FA3B1D3B
:1014780004221946074803F025FC0346002B01D037
:1014880000F088FA034800F03DFE00BF2837BD464B
:1014980080BD00BFCC00002080B58CB000AF07F144
:1014A8000C0324220021184605F0A2F83B1D002257
:1014B8001A605A60224B234A1A60214B63225A60F1
:1014C8001F4B10229A601E4B4FF6FF72DA601C4BBE
:1014D80000221A611A4B00229A610323FB6002233F
:1014E8003B6101237B610023BB610A23FB6102236B
:1014F8003B6201237B620023BB620A23FB6207F184
:101508000C0319460E4803F0A9FA0346002B01D034
:1015180000F040FA00237B600023BB603B1D1946A6
:10152800074804F031F80346002B01D000F032FAE6
:101538003C21034803F038FB00BF3037BD4680BD6F
:10154800140100200004004080B58CB000AF07F102
:101558000C0324220021184605F04AF83B1D0022FE
:101568001A605A60204B214A1A601F4B00225A60A9
:101578001D4B00229A601C4B4FF6FF72DA601A4B23
:1015880000221A61184B00229A610323FB60022390
:101598003B6101237B610023BB610A23FB610223BA
:1015A8003B6201237B620023BB620A23FB6207F1D3
:1015B8000C0319460C4803F051FA0346002B01D0DE
:1015C80000F0E8F900237B600023BB603B1D19464F
:1015D800054803F0D9FF0346002B01D000F0DAF9E3
:1015E80000BF3037BD4680BD5C01002000080040C8
:1015F80080B58EB000AF07F1280300221A605A6048
:101608009A60DA6007F1200300221A605A603B1DD5
:1016180000221A605A609A60DA601A615A619A6107
:10162800384B394A1A60374B40F29F525A60354B53
:1016380000229A60334B40F2E732DA60314B0022E5
:101648001A61304B00229A612E4803F0B9F803461C
:10165800002B01D000F09EF94FF48053BB6207F1D4
:1016680028031946274803F0EFFB0346002B01D057
:1016780000F090F9234803F0F2F80346002B01D05C
:1016880000F088F900233B6200237B6207F1200306
:1016980019461C4803F078FF0346002B01D000F0E0
:1016A80079F960237B600023BB600023FB60002383
:1016B8007B613B1D00221946124803F003FB0346D9
:1016C800002B01D000F066F93B1D042219460D4895
:1016D80003F0F8FA0346002B01D000F05BF93B1D3C
:1016E80008221946074803F0EDFA0346002B01D0FB
:1016F80000F050F9034800F005FD00BF3837BD463B
:1017080080BD00BFA4010020000C004080B588B057
:1017180000AF3B1D00221A605A609A60DA601A61B5
:101728005A619A611A4B1B4A1A60194B40F29F5230
:101738005A60174B00229A60154B40F2E732DA6084
:10174800134B00221A61124B00229A61104803F0D1
:1017580086F80346002B01D000F01CF960237B605B
:101768000023BB600023FB6000237B613B1D042238
:101778001946074803F0A6FA0346002B01D000F0EB
:1017880009F9034800F0BEFC00BF2037BD4680BD04
:10179800EC0100200040014080B500AF0E4B0F4A1D
:1017A8001A600D4B00225A600B4B00229A600A4BBC
:1017B8004FF6FF72DA60084B00221A61064B0022CE
:1017C8009A61054802F0FCFF0346002B01D000F0A7
:1017D800E1F800BF80BD00BF340200200044014092
:1017E80080B500AF0E4B0F4A1A600D4B00225A60AD
:1017F8000B4B00229A600A4B4FF6FF72DA60084BD7
:1018080000221A61064B00229A61054802F0D8FFAF
:101818000346002B01D000F0BDF800BF80BD00BF1B
:101828007C0200200048014080B500AF114B124AED
:101838001A60104B4FF4E1325A600E4B00229A6046
:101848000C4B0022DA600B4B00221A61094B0C2268
:101858005A61084B00229A61064B0022DA6105485A
:1018680003F052FF0346002B01D000F093F800BFAD
:1018780080BD00BFC40200200010014080B58AB0BE
:1018880000AF07F1140300221A605A609A60DA6008
:101898001A6100233B61324B1B6B314A43F004034E
:1018A80013632F4B1B6B03F004033B613B6900235D
:1018B800FB602B4B1B6B2A4A43F080031363284BB6
:1018C8001B6B03F08003FB60FB680023BB60244BA9
:1018D8001B6B234A43F001031363214B1B6B03F07B
:1018E8000103BB60BB6800237B601D4B1B6B1C4A5C
:1018F80043F0020313631A4B1B6B03F002037B6074
:101908007B6800224FF4C241164801F043F90022D7
:101918004FF23201144801F03DF94FF4C2437B61A4
:101928000123BB610023FB6100233B6207F1140321
:1019380019460C4800F0AAFF4FF232037B610123DD
:10194800BB610023FB6100233B6207F114031946C6
:10195800054800F09BFF00BF2837BD4680BD00BF8B
:1019680000380240000802400004024080B483B0FE
:1019780000AF78607B68054A1A60054B01221A702F
:1019880000BF0C37BD465DF8047B7047001001406E
:101998000D03002080B400AF72B600BFFEE7000060
:1019A80080B588B004AF0346FB710B46BB71134684
:1019B8007B717B79002B01D001237B71244B186844
:1019C800FB799AB20A2302930123019307F10F03CB
:1019D80000930123A02101F033FC0346002B01D022
:1019E800012331E0BB79012202FA03F35BB263F011
:1019F8007F035BB2DB435AB2FB7B5BB213405BB243
:101A0800DBB2FB737B7903F00102BB7902FA03F3C3
:101A18005AB2FB7B5BB213435BB2DBB2FB730C4B7A
:101A28001868FB799AB20A2302930123019307F1FC
:101A38000F0300930123A02101F008FB0346002BAC
:101A480001D0012300E0002318461037BD4680BDB1
:101A58001003002080B584B002AF0623FB71094B48
:101A68001868FA1D0A2300930123002101F0F0F9F8
:101A78000346002B01D1002300E001231846083754
:101A8800BD4680BD1003002080B582B000AF03467C
:101A9800FB71FB791A4604210020FFF781FF0346FA
:101AA80018460837BD4680BD80B582B000AF0346F2
:101AB800FB71FB791A4607210020FFF771FF0346E7
:101AC80018460837BD4680BD80B582B000AF0346D2
:101AD800FB71FB791A4605210020FFF761FF0346D9
:101AE80018460837BD4680BD80B588B004AF0346A8
:101AF800FB80FB8840F2F552934202D90323FB7224
:101B080046E0FB88182B02D8FF23FB7240E0FB88D5
:101B180007EE903AF8EE677A17EE900AFEF7BCFCEB
:101B28004FF000022A4BFEF70FFD02460B4626A196
:101B3800D1E90001FEF732FE02460B46104619466F
:101B48004FF00002234BFEF747FB02460B461046B8
:101B58001946FEF7B3FF0346FB60F868FEF79CFCE6
:101B68004FF000021C4BFEF739FB02460B4643ECD4
:101B7800172BB0EE470AF0EE670A04F065FD53EC48
:101B8800102B10461946FEF779FF0346DBB2FB72AD
:101B98000120FFF779FF114B18680A2302930123EC
:101BA800019307F10B0300930123FE22A02101F00A
:101BB8004DFA0020FFF768FF0120FFF775FF0023AB
:101BC80018461037BD4680BD0000000084D7774115
:101BD8000000B0400000F03F0000E03F100300208C
:101BE80080B588B004AF0346FB710B46BB80134633
:101BF8007B80FB799B00DBB20633FB73BB88DBB2CF
:101C08003B72BB881B0A9BB2DBB27B727B88DBB260
:101C1800BB727B881B0A9BB2DBB2FB720C4B186849
:101C2800FB7B9AB20A2302930423019307F108036A
:101C380000930123A02101F009FA0346002B01D0EB
:101C4800012300E0002318461037BD4680BD00BFC1
:101C58001003002080B582B000AF0346FB710B462D
:101C6800BB801346BB71BB88B3F5805F02D340F6D7
:101C7800FF73BB80BB79002B25D0BB88002B08D114
:101C8800FB7900224FF480511846FFF7A9FF03465D
:101C98003AE0BB8840F6FF72934208D1FB794FF4D3
:101CA800805200211846FFF79BFF03462CE0BB88B3
:101CB800C3F57F630F339AB2FB7900211846FFF70B
:101CC8008FFF034620E0BB8840F6FF72934208D19D
:101CD800FB7900224FF480511846FFF781FF034635
:101CE80012E0BB88002B08D1FB794FF48052002109
:101CF8001846FFF775FF034606E0BA88FB7900210E
:101D08001846FFF76DFF034618460837BD4680BDE5
:101D180080B584B000AF034687ED000AFB71D7EDAC
:101D2800007AF5EEC07AF1EE10FA02D54FF0000312
:101D38003B60D7ED007A9FED207AF4EEC77AF1EE9A
:101D480010FA01DD1D4B3B603868FEF7A5FB18A3B0
:101D5800D3E90023FEF7F8FB02460B461046194666
:101D68004FF00002164BFEF719FD02460B461046CF
:101D780019464FF00002134BFEF730FA02460B46A5
:101D880010461946FEF79AFE0346FB60D7ED037A24
:101D9800FCEEE77A17EE903A99B2FB7900221846E2
:101DA800FFF758FF034618461037BD4680BD00BFF1
:101DB8000000000000607840000034430000344315
:101DC8000080664000805B4080B582B000AF7860DC
:101DD800074A7B681360FFF73DFE3020FFF784FE5B
:101DE8000120FFF771FE002318460837BD4680BD65
:101DF8001003002080B483B000AF00237B60104B39
:101E08005B6C0F4A43F4804353640D4B5B6C03F4E3
:101E180080437B607B6800233B60094B1B6C084A4E
:101E280043F080531364064B1B6C03F080533B60F4
:101E38003B6800BF0C37BD465DF8047B704700BFA8
:101E48000038024080B58AB000AF786007F114030B
:101E580000221A605A609A60DA601A617B681B680F
:101E6800194A93422CD100233B61184B1B6B174A2C
:101E780043F002031363154B1B6B03F002033B6132
:101E88003B694FF440737B611223BB610023FB6104
:101E980003233B6204237B6207F1140319460C48B1
:101EA80000F0F4FC0023FB60084B1B6C074A43F46A
:101EB80000131364054B1B6C03F40013FB60FB68F1
:101EC80000BF2837BD4680BD00540040003802409E
:101ED8000004024080B487B000AF78607B681B685C
:101EE8001F4A93420ED100237B611E4B5B6C1D4A37
:101EF80043F0010353641B4B5B6C03F001037B61EC
:101F08007B6926E07B681B68B3F1804F0ED1002304
:101F18003B61144B1B6C134A43F001031364114BD0
:101F28001B6C03F001033B613B6912E07B681B6893
:101F38000D4A93420DD10023FB600A4B5B6C094AA2
:101F480043F480335364074B5B6C03F48033FB60CA
:101F5800FB6800BF1C37BD465DF8047B704700BFB7
:101F680000000140003802400040014080B58CB0BC
:101F780000AF786007F11C0300221A605A609A606B
:101F8800DA601A617B681B68324A93422CD10023BD
:101F9800BB61314B1B6C304A43F0020313642E4B78
:101FA8001B6C03F00203BB61BB6900237B612A4BF6
:101FB8001B6B294A43F001031363274B1B6B03F088
:101FC80001037B617B69C023FB6102233B62002321
:101FD8007B620023BB620223FB6207F11C031946E4
:101FE8001E4800F053FC30E07B681B681C4A934293
:101FF8002BD100233B61184B1B6C174A43F0040399
:102008001364154B1B6C03F004033B613B6900230D
:10201800FB60114B1B6B104A43F0020313630E4B1A
:102028001B6B03F00203FB60FB68C023FB61022308
:102038003B6200237B620023BB620223FB6207F141
:102048001C031946074800F021FC00BF3037BD4685
:1020580080BD00BF0004004000380240000002407C
:10206800000800400004024080B487B000AF7860E8
:102078007B681B681F4A93420ED100237B611E4B6D
:102088001B6C1D4A43F0080313641B4B1B6C03F0C5
:1020980008037B617B6926E07B681B68174A9342CB
:1020A8000ED100233B61144B5B6C134A43F400339D
:1020B8005364114B5B6C03F400333B613B6912E0E2
:1020C8007B681B680E4A93420DD10023FB600A4BC4
:1020D8005B6C094A43F480235364074B5B6C03F43D
:1020E8008023FB60FB6800BF1C37BD465DF8047B9E
:1020F800704700BF000C0040003802400044014017
:102108000048014080B58CB000AF786007F11C032F
:1021180000221A605A609A60DA601A617B681B684C
:10212800574A93421FD10023BB61564B1B6B554A3C
:1021380043F001031363534B1B6B03F00103BB61B3
:10214800BB694FF41063FB6102233B6200237B628F
:102158000023BB620123FB6207F11C0319464A48AE
:1021680000F094FB88E07B681B68B3F1804F3CD19A
:1021780000237B61434B1B6B424A43F0010313630B
:10218800404B1B6B03F001037B617B6900233B61C0
:102198003C4B1B6B3B4A43F002031363394B1B6BED
:1021A80003F002033B613B692023FB6102233B628E
:1021B80000237B620023BB620123FB6207F11C033F
:1021C8001946314800F062FB0823FB6102233B6299
:1021D80000237B620023BB620123FB6207F11C031F
:1021E80019462A4800F052FB46E07B681B68284ADB
:1021F80093421ED10023FB60224B1B6B214A43F004
:10220800010313631F4B1B6B03F00103FB60FB68A7
:102218000723FB6102233B6200237B620023BB622E
:102228000223FB6207F11C031946174800F02EFB36
:1022380022E07B681B68174A93421DD10023BB60CC
:10224800104B1B6B0F4A43F0010313630D4B1B6BC1
:1022580003F00103BB60BB680823FB6102233B62F8
:1022680000237B620023BB620323FB6207F11C038C
:102278001946054800F00AFB00BF3037BD4680BD4F
:102288000000014000380240000002400004024003
:10229800000C00400040014080B58AB000AF786073
:1022A80007F1140300221A605A609A60DA601A6112
:1022B8007B681B681D4A934234D100233B611C4B49
:1022C8005B6C1B4A43F010035364194B5B6C03F0BF
:1022D80010033B613B690023FB60154B1B6B144AE1
:1022E80043F001031363124B1B6B03F00103FB6004
:1022F800FB684FF4C0637B610223BB610023FB6171
:1023080003233B6207237B6207F11403194609483C
:1023180000F0BCFA00220021252000F0EEF925206B
:1023280000F007FA00BF2837BD4680BD0010014005
:10233800003802400000024080B400AFFEE780B4DD
:1023480000AFFEE780B400AFFEE780B400AFFEE761
:1023580080B400AFFEE780B400AF00BFBD465DF8B3
:10236800047B704780B400AF00BFBD465DF8047BB6
:10237800704780B400AF00BFBD465DF8047B70476E
:1023880080B500AF00F09AF800BF80BD80B500AFFF
:10239800024803F02FFA00BF80BD00BFC40200202E
:1023A80080B400AF064BD3F88830054A43F4700375
:1023B800C2F8883000BFBD465DF8047B704700BF97
:1023C80000ED00E0DFF834D0FFF7EAFF0C480D49D4
:1023D8000D4A002302E0D458C4500433C4188C4278
:1023E800F9D30A4A0A4C002301E013600432A242DE
:1023F800FBD304F005F9FEF773FE704700000120D7
:10240800000000201400002090670008140000203D
:1024180018030020FEE7000080B500AF0E4B1B68D4
:102428000D4A43F4007313600B4B1B680A4A43F4CC
:1024380080631360084B1B68074A43F4807313607A
:10244800032000F04FF90F2000F008F8FFF7D2FC46
:102458000023184680BD00BF003C024080B582B012
:1024680000AF7860124B1A68124B1B7819464FF46C
:102478007A73B3FBF1F3B2FBF3F3184600F067F994
:102488000346002B01D001230EE07B680F2B0AD8EE
:10249800002279684FF0FF3000F02FF9064A7B6878
:1024A8001360002300E0012318460837BD4680BDAD
:1024B80008000020100000200C00002080B400AFAD
:1024C800064B1B781A46064B1B681344044A1360D4
:1024D80000BFBD465DF8047B704700BF10000020B8
:1024E8001403002080B400AF034B1B681846BD4698
:1024F8005DF8047B704700BF1403002080B584B0EA
:1025080000AF7860FFF7EEFFB8607B68FB60FB68A0
:10251800B3F1FF3F05D00A4B1B781A46FB681344FA
:10252800FB6000BFFFF7DEFF0246BB68D31AFA68FC
:102538009A42F7D800BF00BF1037BD4680BD00BF24
:102548001000002080B485B000AF78607B6803F08D
:102558000703FB600C4BDB68BB60BA684FF6FF03F0
:102568001340BB60FB681A02BB68134343F0BF63A8
:1025780043F40033BB60044ABB68D36000BF143720
:10258800BD465DF8047B704700ED00E080B400AF05
:10259800044BDB681B0A03F007031846BD465DF8C9
:1025A800047B704700ED00E080B483B000AF0346C1
:1025B800FB7197F90730002B0BDBFB7903F01F0247
:1025C800074997F907305B09012000FA02F241F840
:1025D800232000BF0C37BD465DF8047B704700BF61
:1025E80000E100E080B483B000AF03463960FB71BE
:1025F80097F90730002B0ADB3B68DAB20C4997F9E8
:1026080007301201D2B20B4483F800230AE03B687A
:10261800DAB20849FB7903F00F03043B1201D2B286
:102628000B441A7600BF0C37BD465DF8047B704733
:1026380000E100E000ED00E080B489B000AFF86090
:10264800B9607A60FB6803F00703FB61FB69C3F1BB
:102658000703042B28BF0423BB61FB690433062B43
:1026680002D9FB69033B00E000237B614FF0FF3296
:10267800BB6902FA03F3DA43BB681A407B699A40E4
:102688004FF0FF317B6901FA03F3D9437B680B40B4
:10269800134318462437BD465DF8047B7047000095
:1026A80080B582B000AF78607B68013BB3F1807F72
:1026B80001D301230FE00A4A7B68013B53600F21D5
:1026C8004FF0FF30FFF78EFF054B00229A60044B56
:1026D80007221A60002318460837BD4680BD00BF90
:1026E80010E000E080B582B000AF78607868FFF74E
:1026F80029FF00BF0837BD4680BD80B586B000AF52
:102708000346B9607A60FB7300237B61FFF73EFFE5
:1027180078617A68B9687869FFF78EFF024697F999
:102728000F3011461846FFF75DFF00BF1837BD464A
:1027380080BD80B582B000AF0346FB7197F90730C2
:102748001846FFF731FF00BF0837BD4680BD80B58A
:1027580082B000AF78607868FFF7A2FF034618469A
:102768000837BD4680BD80B584B000AF78607B680F
:102778009B6DFB60FFF7B6FEB8607B6893F8353059
:10278800DBB2022B08D07B6880225A657B68002266
:1027980083F83420012352E07B681B681A687B6841
:1027A8001B6822F016021A607B681B685A697B68EE
:1027B8001B6822F080025A617B681B6C002B03D1D6
:1027C8007B689B6C002B07D07B681B681A687B684A
:1027D8001B6822F008021A607B681B681A687B680D
:1027E8001B6822F001021A6013E0FFF77BFE024625
:1027F800BB68D31A052B0CD97B6820225A657B68E5
:10280800032283F835207B68002283F834200323D1
:1028180015E07B681B681B6803F00103002BE4D1FB
:102828007B68DB6D3F229A40FB689A607B680122D7
:1028380083F835207B68002283F83420002318466B
:102848001037BD4680BD80B483B000AF78607B6828
:1028580093F83530DBB2022B04D07B6880225A65AE
:1028680001230CE07B68052283F835207B681B6810
:102878001A687B681B6822F001021A600023184658
:102888000C37BD465DF8047B7047000080B489B002
:1028980000AF7860396000237B6100233B6100232F
:1028A800BB610023FB6159E10122FB6902FA03F3D2
:1028B8007B613B681B687A6913403B613A697B69B5
:1028C8009A4240F048813B685B6803F00303012BA0
:1028D80005D03B685B6803F00303022B30D17B68AB
:1028E8009B68BB61FB695B00032202FA03F3DB43CD
:1028F800BA691340BB613B68DA68FB695B0002FA9E
:1029080003F3BA691343BB617B68BA699A607B6851
:102918005B68BB610122FB6902FA03F3DB43BA6916
:102928001340BB613B685B681B0903F00102FB694C
:1029380002FA03F3BA691343BB617B68BA695A6048
:102948003B685B6803F00303032B17D07B68DB68E5
:10295800BB61FB695B00032202FA03F3DB43BA693C
:102968001340BB613B689A68FB695B0002FA03F39A
:10297800BA691343BB617B68BA69DA603B685B6814
:1029880003F00303022B23D1FB69DA087B680832C2
:1029980053F82230BB61FB6903F007039B000F2249
:1029A80002FA03F3DB43BA691340BB613B681A6957
:1029B800FB6903F007039B0002FA03F3BA691343A8
:1029C800BB61FB69DA087B680832B96943F82210F1
:1029D8007B681B68BB61FB695B00032202FA03F397
:1029E800DB43BA691340BB613B685B6803F00302D1
:1029F800FB695B0002FA03F3BA691343BB617B68A6
:102A0800BA691A603B685B6803F44033002B00F036
:102A1800A2800023FB60574B5B6C564A43F480430B
:102A28005364544B5B6C03F48043FB60FB68524A6D
:102A3800FB699B08023352F82330BB61FB6903F042
:102A480003039B000F2202FA03F3DB43BA69134026
:102A5800BB617B68494A934219D07B68484A9342D4
:102A680013D07B68474A93420DD07B68464A93420D
:102A780007D07B68454A934201D1042308E0072325
:102A880006E0032304E0022302E0012300E0002320
:102A9800FA6902F0030292009340BA691343BB61DA
:102AA8003549FB699B080233BA6941F82320384B42
:102AB8009B68BB613B69DB43BA691340BB613B68F8
:102AC8005B6803F48013002B03D0BA693B69134396
:102AD800BB612F4ABB6993602D4BDB68BB613B69C7
:102AE800DB43BA691340BB613B685B6803F40013BE
:102AF800002B03D0BA693B691343BB61244ABB6905
:102B0800D360234B5B68BB613B69DB43BA69134005
:102B1800BB613B685B6803F40033002B03D0BA69E0
:102B28003B691343BB611A4ABB695360184B1B6866
:102B3800BB613B69DB43BA691340BB613B685B68B7
:102B480003F48033002B03D0BA693B691343BB619C
:102B58000F4ABB691360FB690133FB61FB690F2BEB
:102B68007FF6A2AE00BF00BF2437BD465DF8047BE8
:102B7800704700BF003802400038014000000240A2
:102B88000004024000080240000C0240001002400D
:102B9800003C014080B483B000AF78600B467B8076
:102BA80013467B707B78002B03D07A887B689A6108
:102BB80003E07B881A047B689A6100BF0C37BD4626
:102BC8005DF8047B7047000080B584B000AF786082
:102BD8007B68002B01D101232BE17B6893F83D3002
:102BE800DBB2002B06D17B68002283F83C20786892
:102BF800FFF728F97B68242283F83D207B681B684F
:102C08001A687B681B6822F001021A607B681B68DF
:102C18001A687B681B6842F400421A607B681B686C
:102C28001A687B681B6822F400421A6001F0A0FD54
:102C3800F8607B685B68814A934207D8FB68804AE2
:102C4800934294BF01230023DBB206E0FB687D4A70
:102C5800934294BF01230023DBB2002B01D0012350
:102C6800E7E0FB68784AA2FB03239B0CBB607B6808
:102C78001B685B6823F03F017B681B68BA680A43DE
:102C88005A607B681B681B6A23F03F017B685B689E
:102C98006A4A934202D8BB68013309E0BB684FF423
:102CA800967202FB03F3694AA2FB03239B090133D3
:102CB8007A6812680B4313627B681B68DB6923F42C
:102CC8004F4222F0FF027B685B685C498B4219D84F
:102CD800FB68591E7B685B685B00B1FBF3F3591C0A
:102CE80040F6FC730B40002B0AD0FB68591E7B682A
:102CF8005B685B00B1FBF3F30133C3F30B0351E0F3
:102D080004234FE07B689B68002B11D1FB68581E99
:102D18007B6859680B465B000B44B0FBF3F3013347
:102D2800C3F30B03002B0CBF01230023DBB212E01B
:102D3800FB68581E7B6859680B469B000B4499003A
:102D48000B44B0FBF3F30133C3F30B03002B0CBFAD
:102D580001230023DBB2002B01D0012322E07B6892
:102D68009B68002B0ED1FB68581E7B6859680B4680
:102D78005B000B44B0FBF3F30133C3F30B0343F4E1
:102D880000430FE0FB68581E7B6859680B469B00A0
:102D98000B4499000B44B0FBF3F30133C3F30B036B
:102DA80043F44043796809681343CB617B681B6827
:102DB8001B6823F0C0017B68DA697B681B6A1A43C9
:102DC8007B681B680A431A607B681B689B6823F44E
:102DD800034323F0FF037A6811697A68D2681143C4
:102DE8007A6812680B4393607B681B68DB6823F082
:102DF800FF017B685A697B689B691A437B681B687B
:102E08000A43DA607B681B681A687B681B6842F0B3
:102E180001021A607B6800221A647B68202283F80A
:102E28003D207B6800221A637B68002283F83E20DD
:102E3800002318461037BD4680BD00BFA08601009C
:102E48007F841E00FF083D0083DE1B43D34D6210C4
:102E580080B588B002AFF8607A601A460B467B816D
:102E680013463B81FFF73EFB7861FB6893F83D30E2
:102E7800DBB2202B40F0E0807B690093192301220C
:102E88007049F86800F00EFE0346002B01D00223BB
:102E9800D3E0FB6893F83C30012B01D10223CCE04E
:102EA800FB68012283F83C20FB681B681B6803F061
:102EB8000103012B07D0FB681B681A68FB681B68B5
:102EC80042F001021A60FB681B681A68FB681B68FD
:102ED80022F400621A60FB68212283F83D20FB6817
:102EE800102283F83E20FB6800221A64FB687A6887
:102EF8005A62FB683A895A85FB685B8D9AB2FB680F
:102F08001A85FB68504ADA6279897B693A6AF868F7
:102F180000F0C8FB0346002B01D001238DE00023FD
:102F28003B61FB681B685B693B61FB681B689B69CD
:102F38003B613B6966E07A69396AF86800F0CCFE63
:102F48000346002B0DD0FB681B6C042B07D1FB68D4
:102F58001B681A68FB681B6842F400721A60012338
:102F68006BE0FB685B6A1A78FB681B681A61FB6890
:102F78005B6A5A1CFB685A62FB685B8D9BB2013B1B
:102F88009AB2FB685A85FB681B8D013B9AB2FB68B5
:102F98001A85FB681B685B6903F00403042B1BD1CB
:102FA800FB681B8D002B17D0FB685B6A1A78FB68DF
:102FB8001B681A61FB685B6A5A1CFB685A62FB68EB
:102FC8005B8D9BB2013B9AB2FB685A85FB681B8DEF
:102FD800013B9AB2FB681A857A69396AF86800F089
:102FE800C3FE0346002B0DD0FB681B6C042B07D1D6
:102FF800FB681B681A68FB681B6842F400721A6059
:1030080001231AE0FB681B8D002B94D1FB681B6819
:103018001A68FB681B6842F400721A60FB68202279
:1030280083F83D20FB68002283F83E20FB680022DD
:1030380083F83C20002300E0022318461837BD46D9
:1030480080BD00BF020010000000FFFF80B588B0FF
:1030580002AFF860084611461A4603467B810B46C4
:103068003B811346FB80FFF73DFA7861FB6893F8D4
:103078003D30DBB2202B40F0D9807B6900931923C7
:1030880001226D49F86800F00DFD0346002B01D0C0
:103098000223CCE0FB6893F83C30012B01D10223DA
:1030A800C5E0FB68012283F83C20FB681B681B68AD
:1030B80003F00103012B07D0FB681B681A68FB6843
:1030C8001B6842F001021A60FB681B681A68FB68FB
:1030D8001B6822F400621A60FB68212283F83D20F5
:1030E800FB68402283F83E20FB6800221A64FB68D4
:1030F8003A6A5A62FB68BA8C5A85FB685B8D9AB249
:10310800FB681A85FB684D4ADA62F8883A8979893A
:103118007B690193BB6A00930346F86800F044FB9F
:103128000346002B52D0012381E07A69B96AF86816
:1031380000F0D2FD0346002B0DD0FB681B6C042B5E
:1031480007D1FB681B681A68FB681B6842F40072A9
:103158001A6001236BE0FB685B6A1A78FB681B68DE
:103168001A61FB685B6A5A1CFB685A62FB681B8D14
:10317800013B9AB2FB681A85FB685B8D9BB2013BE9
:103188009AB2FB685A85FB681B685B6903F0040305
:10319800042B1BD1FB681B8D002B17D0FB685B6AC7
:1031A8001A78FB681B681A61FB685B6A5A1CFB6823
:1031B8005A62FB681B8D013B9AB2FB681A85FB6853
:1031C8005B8D9BB2013B9AB2FB685A85FB681B8DED
:1031D800002BAAD17A69B96AF86800F0C5FD0346E0
:1031E800002B0DD0FB681B6C042B07D1FB681B68F8
:1031F8001A68FB681B6842F400721A60012316E023
:10320800FB681B681A68FB681B6842F400721A6046
:10321800FB68202283F83D20FB68002283F83E20CB
:10322800FB68002283F83C20002300E002231846B4
:103238001837BD4680BD00BF020010000000FFFF28
:1032480080B58CB002AFF860084611461A460346AE
:103258007B810B463B811346FB80FFF743F978627D
:10326800FB6893F83D30DBB2202B40F014827B6A78
:103278000093192301227B49F86800F013FC0346E8
:10328800002B01D0022307E2FB6893F83C30012BA6
:1032980001D1022300E2FB68012283F83C20FB688D
:1032A8001B681B6803F00103012B07D0FB681B6830
:1032B8001A68FB681B6842F001021A60FB681B6809
:1032C8001A68FB681B6822F400621A60FB682222F5
:1032D80083F83D20FB68402283F83E20FB680022EB
:1032E8001A64FB683A6B5A62FB68BA8E5A85FB68A7
:1032F8005B8D9AB2FB681A85FB685B4ADA62F888CC
:103308003A8979897B6A0193BB6B00930346F86815
:1033180000F0E0FA0346002B01D00123BCE1FB6872
:103328001B8D002B13D100233B62FB681B685B6974
:103338003B62FB681B689B693B623B6AFB681B68D6
:103348001A68FB681B6842F400721A6090E1FB6817
:103358001B8D012B1BD1FB681B681A68FB681B6857
:1033680022F480621A600023FB61FB681B685B69BA
:10337800FB61FB681B689B69FB61FB69FB681B6859
:103388001A68FB681B6842F400721A6070E1FB68F7
:103398001B8D022B1BD1FB681B681A68FB681B6816
:1033A80022F480621A60FB681B681A68FB681B6855
:1033B80042F400621A600023BB61FB681B685B690A
:1033C800BB61FB681B689B69BB61BB6950E100235B
:1033D8007B61FB681B685B697B61FB681B689B6999
:1033E8007B617B6944E1FB681B8D032B00F2F18054
:1033F800FB681B8D012B23D17A6AB96BF86800F042
:10340800FBFC0346002B01D0012345E1FB681B6848
:103418001A69FB685B6AD2B21A70FB685B6A5A1C4D
:10342800FB685A62FB681B8D013B9AB2FB681A85E0
:10343800FB685B8D9BB2013B9AB2FB685A8517E12A
:10344800FB681B8D022B4ED17B6A0093BB6B00225D
:103458000649F86800F026FB0346002B08D0012334
:103468001AE100BF020010000000FFFF0400010085
:10347800FB681B681A68FB681B6842F400721A60D4
:10348800FB681B681A69FB685B6AD2B21A70FB6832
:103498005B6A5A1CFB685A62FB681B8D013B9AB237
:1034A800FB681A85FB685B8D9BB2013B9AB2FB688F
:1034B8005A85FB681B681A69FB685B6AD2B21A7086
:1034C800FB685B6A5A1CFB685A62FB681B8D013BF0
:1034D8009AB2FB681A85FB685B8D9BB2013B9AB276
:1034E800FB685A85C4E07B6A0093BB6B00226C4979
:1034F800F86800F0D7FA0346002B01D00123CBE08F
:10350800FB681B681A68FB681B6822F480621A60F3
:10351800FB681B681A69FB685B6AD2B21A70FB68A1
:103528005B6A5A1CFB685A62FB681B8D013B9AB2A6
:10353800FB681A85FB685B8D9BB2013B9AB2FB68FE
:103548005A857B6A0093BB6B00225549F86800F0E6
:10355800A9FA0346002B01D001239DE0FB681B68F4
:103568001A68FB681B6842F400721A60FB681B68E3
:103578001A69FB685B6AD2B21A70FB685B6A5A1CEC
:10358800FB685A62FB681B8D013B9AB2FB681A857F
:10359800FB685B8D9BB2013B9AB2FB685A85FB685E
:1035A8001B681A69FB685B6AD2B21A70FB685B6AAF
:1035B8005A1CFB685A62FB681B8D013B9AB2FB6878
:1035C8001A85FB685B8D9BB2013B9AB2FB685A85F2
:1035D8004EE07A6AB96BF86800F00EFC0346002BDF
:1035E80001D0012358E0FB681B681A69FB685B6A15
:1035F800D2B21A70FB685B6A5A1CFB685A62FB6895
:103608001B8D013B9AB2FB681A85FB685B8D9BB2E8
:10361800013B9AB2FB685A85FB681B685B6903F03B
:103628000403042B24D1FB681B8D032B07D1FB68F3
:103638001B681A68FB681B6822F480621A60FB68C2
:103648001B681A69FB685B6AD2B21A70FB685B6A0E
:103658005A1CFB685A62FB681B8D013B9AB2FB68D7
:103668001A85FB685B8D9BB2013B9AB2FB685A8551
:10367800FB681B8D002B7FF4B6AEFB68202283F815
:103688003D20FB68002283F83E20FB68002283F877
:103698003C20002300E0022318462837BD4680BDA1
:1036A8000400010080B588B002AFF8607A603B6022
:1036B8000B467B81FB68DB6A7B617B69082B06D044
:1036C8007B69012B03D07B6913F5803F08D1FB6828
:1036D8001B681A68FB681B6842F480721A600BE06A
:1036E800FB681B6B122B07D1FB681B681A68FB6809
:1036F8001B6842F480721A603B6800937B68002262
:103708004FF00111F86800F0CDF90346002B0DD0F9
:10371800FB681B681B6803F48073B3F5807F03D1D3
:10372800FB684FF400721A64032335E0FB681B69D9
:10373800B3F5804F08D17B89DBB21A46FB681B685A
:1037480002F0FE021A611BE07B89DB11DBB203F099
:103758000603DBB263F00F03DAB2FB681B681A6179
:103768003B687A680E49F86800F016FA0346002BA1
:1037780001D0012310E07B89DAB2FB681B681A616B
:103788003B687A680749F86800F006FA0346002B98
:1037980001D0012300E0002318461837BD4680BD3C
:1037A800080001000200010080B588B002AFF8608F
:1037B800084611461A4603467B810B463B81134651
:1037C800FB80FB681B681A68FB681B6842F4807200
:1037D8001A607B6A00933B6A00224FF00111F86877
:1037E80000F060F90346002B0DD0FB681B681B68CE
:1037F80003F48073B3F5807F03D1FB684FF4007244
:103808001A6403235FE07B89DBB21A46FB681B68F6
:1038180002F0FE021A617B6A3A6A2D49F86800F0E4
:10382800BBF90346002B01D001234CE000237B6148
:10383800FB681B685B697B61FB681B689B697B6134
:103848007B697A6A396AF86800F046FA0346002B01
:103858000DD0FB681B6C042B07D1FB681B681A682A
:10386800FB681B6842F400721A6001232BE0FB8896
:10387800012B05D13B89DAB2FB681B681A6121E08C
:103888003B891B0A9BB2DAB2FB681B681A617A6A29
:10389800396AF86800F020FA0346002B0DD0FB685F
:1038A8001B6C042B07D1FB681B681A68FB681B6834
:1038B80042F400721A60012305E03B89DAB2FB6822
:1038C8001B681A61002318461837BD4680BD00BF23
:1038D8000200010080B588B002AFF86008461146C2
:1038E8001A4603467B810B463B811346FB80FB68E7
:1038F8001B681A68FB681B6842F480621A60FB68E0
:103908001B681A68FB681B6842F480721A607B6A3D
:1039180000933B6A00224FF00111F86800F0C2F8EA
:103928000346002B0DD0FB681B681B6803F48073EB
:10393800B3F5807F03D1FB684FF400721A64032348
:10394800AAE07B89DBB21A46FB681B6802F0FE021C
:103958001A617B6A3A6A5249F86800F01DF9034611
:10396800002B01D0012397E000237B61FB681B68D3
:103978005B697B61FB681B689B697B617B697A6A11
:10398800396AF86800F0A8F90346002B0DD0FB68E7
:103998001B6C042B07D1FB681B681A68FB681B6843
:1039A80042F400721A60012376E0FB88012B05D1EE
:1039B8003B89DAB2FB681B681A6121E03B891B0A64
:1039C8009BB2DAB2FB681B681A617A6A396AF868CE
:1039D80000F082F90346002B0DD0FB681B6C042B0A
:1039E80007D1FB681B681A68FB681B6842F4007201
:1039F8001A60012350E03B89DAB2FB681B681A6140
:103A08007A6A396AF86800F067F90346002B0DD026
:103A1800FB681B6C042B07D1FB681B681A68FB68E2
:103A28001B6842F400721A60012335E0FB681B68CA
:103A38001A68FB681B6842F480721A607B6A0093FC
:103A48003B6A00224FF00111F86800F02BF803469A
:103A5800002B0DD0FB681B681B6803F48073B3F55B
:103A6800807F03D1FB684FF400721A64032313E0CC
:103A78007B89DBB243F00103DAB2FB681B681A6189
:103A88007B6A3A6A0649F86800F086F80346002B14
:103A980001D0012300E0002318461837BD4680BD39
:103AA8000200010080B584B000AFF860B9603B60E7
:103AB8001346FB7148E03B68B3F1FF3F44D0FEF783
:103AC80011FD0246BB69D31A3A689A4202D33B6891
:103AD800002B39D1BB681B0CDBB2012B0DD1FB6865
:103AE8001B685B69DA43BB6813409BB2002B0CBFB1
:103AF80001230023DBB21A460CE0FB681B689B69B4
:103B0800DA43BB6813409BB2002B0CBF0123002390
:103B1800DBB21A46FB799A4216D1FB6800221A6377
:103B2800FB68202283F83D20FB68002283F83E20B2
:103B3800FB681B6C43F02002FB681A64FB680022D8
:103B480083F83C20012323E0BB681B0CDBB2012B6C
:103B58000DD1FB681B685B69DA43BB6813409BB2F5
:103B6800002B0CBF01230023DBB21A460CE0FB68D4
:103B78001B689B69DA43BB6813409BB2002B0CBFE0
:103B880001230023DBB21A46FB799A4293D0002323
:103B980018461037BD4680BD80B584B000AFF860C8
:103BA800B9607A603B6071E0FB681B685B6903F48D
:103BB8008063B3F5806F23D1FB681B681A68FB68C4
:103BC8001B6842F400721A60FB681B686FF480621D
:103BD8005A61FB6800221A63FB68202283F83D20A3
:103BE800FB68002283F83E20FB681B6C43F004024C
:103BF800FB681A64FB68002283F83C20012367E015
:103C08007B68B3F1FF3F41D0FEF76CFC02463B688E
:103C1800D31A7A689A4202D37B68002B36D1BB68E4
:103C28001B0CDBB2012B0CD1FB681B685B69DA4308
:103C3800BB6813409BB2002B14BF01230023DBB2E7
:103C48000BE0FB681B689B69DA43BB6813409BB2B7
:103C5800002B14BF01230023DBB2002B16D0FB6816
:103C680000221A63FB68202283F83D20FB680022AB
:103C780083F83E20FB681B6C43F02002FB681A6443
:103C8800FB68002283F83C20012321E0BB681B0C61
:103C9800DBB2012B0CD1FB681B685B69DA43BB689C
:103CA80013409BB2002B14BF01230023DBB20BE0AF
:103CB800FB681B689B69DA43BB6813409BB2002B07
:103CC80014BF01230023DBB2002B7FF46DAF002368
:103CD80018461037BD4680BD80B584B000AFF86087
:103CE800B9607A6034E0F86800F0E3F80346002B26
:103CF80001D0012334E0BB68B3F1FF3F28D0FEF7C1
:103D0800F1FB02467B68D31ABA689A4202D3BB68B1
:103D1800002B1DD1FB681B685B6903F08003802BB7
:103D280016D0FB6800221A63FB68202283F83D2026
:103D3800FB68002283F83E20FB681B6C43F02002DE
:103D4800FB681A64FB68002283F83C20012307E023
:103D5800FB681B685B6903F08003802BC3D10023D9
:103D680018461037BD4680BD80B584B000AFF860F6
:103D7800B9607A6034E0F86800F09BF80346002BDD
:103D880001D0012334E0BB68B3F1FF3F28D0FEF730
:103D9800A9FB02467B68D31ABA689A4202D3BB6869
:103DA800002B1DD1FB681B685B6903F00403042B1F
:103DB80016D0FB6800221A63FB68202283F83D2096
:103DC800FB68002283F83E20FB681B6C43F020024E
:103DD800FB681A64FB68002283F83C20012307E093
:103DE800FB681B685B6903F00403042BC3D1002341
:103DF80018461037BD4680BD80B584B000AFF86066
:103E0800B9607A6049E0FB681B685B6903F01003DE
:103E1800102B19D1FB681B686FF010025A61FB6800
:103E280000221A63FB68202283F83D20FB680022E9
:103E380083F83E20FB681A6CFB681A64FB68002252
:103E480083F83C20012330E0FEF74CFB02467B68F8
:103E5800D31ABA689A4202D3BB68002B1DD1FB68FB
:103E68001B685B6903F04003402B16D0FB680022F7
:103E78001A63FB68202283F83D20FB68002283F840
:103E88003E20FB681B6C43F02002FB681A64FB6849
:103E9800002283F83C20012307E0FB681B685B696C
:103EA80003F04003402BAED1002318461037BD461F
:103EB80080BD80B483B000AF78607B681B685B69A5
:103EC80003F48063B3F5806F1BD17B681B686FF4C4
:103ED80080625A617B6800221A637B68202283F81B
:103EE8003D207B68002283F83E207B681B6C43F0F2
:103EF80004027B681A647B68002283F83C20012353
:103F080000E0002318460C37BD465DF8047B704777
:103F180080B586B000AF78607B68002B01D10123A3
:103F280067E27B681B6803F00103002B75D0884BA0
:103F38009B6803F00C03042B0CD0854B9B6803F0A3
:103F48000C03082B12D1824B5B6803F48003B3F592
:103F5800800F0BD17E4B1B6803F40033002B5BD022
:103F68007B685B68002B57D1012342E27B685B6862
:103F7800B3F5803F06D1764B1B68754A43F480330E
:103F880013601DE07B685B68B3F5A02F0CD1704B04
:103F98001B686F4A43F4802313606D4B1B686C4A9F
:103FA80043F4803313600BE0694B1B68684A23F4C1
:103FB80080331360664B1B68654A23F480231360C3
:103FC8007B685B68002B13D0FEF78CFA386108E039
:103FD800FEF788FA02463B69D31A642B01D90323FA
:103FE80007E25B4B1B6803F40033002BF0D014E0AE
:103FF800FEF778FA386108E0FEF774FA02463B6982
:10400800D31A642B01D90323F3E1514B1B6803F442
:104018000033002BF0D100E000BF7B681B6803F081
:104028000203002B63D04A4B9B6803F00C03002B60
:104038000BD0474B9B6803F00C03082B1CD1444B57
:104048005B6803F48003002B16D1414B1B6803F017
:104058000203002B05D07B68DB68012B01D001230C
:10406800C7E13B4B1B6823F0F8027B681B69DB0048
:10407800374913430B603AE07B68DB68002B20D09C
:10408800344B01221A60FEF72DFA386108E0FEF77A
:1040980029FA02463B69D31A022B01D90323A8E166
:1040A8002B4B1B6803F00203002BF0D0284B1B6836
:1040B80023F0F8027B681B69DB00254913430B607A
:1040C80015E0244B00221A60FEF70CFA386108E06C
:1040D800FEF708FA02463B69D31A022B01D90323DB
:1040E80087E11B4B1B6803F00203002BF0D17B68B0
:1040F8001B6803F00803002B36D07B685B69002B34
:1041080016D0154B01221A60FEF7ECF9386108E069
:10411800FEF7E8F902463B69D31A022B01D90323BB
:1041280067E10B4B5B6F03F00203002BF0D01BE041
:10413800094B00221A60FEF7D5F938610EE0FEF748
:10414800D1F902463B69D31A022B07D9032350E160
:104158000038024000004742800E4742884B5B6FA0
:1041680003F00203002BEAD17B681B6803F0040309
:10417800002B00F097800023FB75814B1B6C03F02C
:104188008053002B0FD10023BB607D4B1B6C7C4AF6
:1041980043F0805313647A4B1B6C03F08053BB606D
:1041A800BB680123FB75774B1B6803F48073002BF6
:1041B80018D1744B1B68734A43F480731360FEF77D
:1041C80091F9386108E0FEF78DF902463B69D31A88
:1041D800022B01D903230CE16A4B1B6803F480739B
:1041E800002BF0D07B689B68012B06D1644B1B6FBA
:1041F800634A43F0010313671CE07B689B68052B47
:104208000CD15F4B1B6F5E4A43F0040313675C4B92
:104218001B6F5B4A43F0010313670BE0584B1B6F9E
:10422800574A23F001031367554B1B6F544A23F079
:10423800040313677B689B68002B15D0FEF752F9BF
:1042480038610AE0FEF74EF902463B69D31A41F29B
:104258008832934201D90323CBE0494B1B6F03F00B
:104268000203002BEED014E0FEF73CF938610AE0B7
:10427800FEF738F902463B69D31A41F28832934275
:1042880001D90323B5E03E4B1B6F03F00203002B5B
:10429800EED1FB7D012B05D1394B1B6C384A23F03D
:1042A800805313647B689B69002B00F0A180344B1A
:1042B8009B6803F00C03082B5CD07B689B69022B7E
:1042C80041D1314B00221A60FEF70CF9386108E041
:1042D800FEF708F902463B69D31A022B01D90323DA
:1042E80087E0274B1B6803F00073002BF0D17B6835
:1042F800DA697B681B6A1A437B685B6A9B011A430D
:104308007B689B6A5B08013B1B041A437B68DB6A7A
:104318001B061B4913434B601B4B01221A60FEF717
:10432800E1F8386108E0FEF7DDF802463B69D31A88
:10433800022B01D903235CE0114B1B6803F00073C7
:10434800002BF0D054E0104B00221A60FEF7CAF898
:10435800386108E0FEF7C6F802463B69D31A022B1B
:1043680001D9032345E0064B1B6803F00073002BBB
:10437800F0D13DE07B689B69012B07D1012338E030
:104388000038024000700040600047421B4B5B68E9
:10439800FB607B689B69012B28D0FB6803F48002D3
:1043A8007B68DB699A4221D1FB6803F03F027B6896
:1043B8001B6A9A421AD1FA6847F6C07313407A68A2
:1043C800526A9201934211D1FB6803F440327B6830
:1043D8009B6A5B08013B1B049A4207D1FB6803F008
:1043E80070627B68DB6A1B069A4201D0012300E0F9
:1043F800002318461837BD4680BD00BF003802406C
:1044080080B584B000AF786039607B68002B01D13B
:104418000123CCE0684B1B6803F007033A689A4213
:104428000CD9654B3A68D2B21A70634B1B6803F01B
:1044380007033A689A4201D00123B8E07B681B68F9
:1044480003F00203002B20D07B681B6803F00403F1
:10445800002B05D0594B9B68584A43F4E0539360AE
:104468007B681B6803F00803002B05D0534B9B683F
:10447800524A43F460439360504B9B6823F0F00228
:104488007B689B684D4913438B607B681B6803F00E
:104498000103002B44D07B685B68012B07D1474B95
:1044A8001B6803F40033002B19D101237FE07B68DC
:1044B8005B68022B03D07B685B68032B07D13F4BFB
:1044C8001B6803F00073002B09D101236FE03B4BFD
:1044D8001B6803F00203002B01D1012367E0374B6F
:1044E8009B6823F003027B685B68344913438B6045
:1044F800FDF7F8FFF8600AE0FDF7F4FF0246FB68F5
:10450800D31A41F28832934201D903234FE02B4B4F
:104518009B6803F00C027B685B689B009A42EBD1B6
:10452800254B1B6803F007033A689A420CD2224BCA
:104538003A68D2B21A70204B1B6803F007033A6836
:104548009A4201D0012332E07B681B6803F0040320
:10455800002B08D0194B9B6823F4E0527B68DB687A
:10456800164913438B607B681B6803F00803002B14
:1045780009D0124B9B6823F460427B681B69DB00FF
:104588000E4913438B6000F021F802460B4B9B68E1
:104598001B0903F00F030A49CB5C22FA03F3094A0B
:1045A8001360094B1B681846FDF758FF002318468F
:1045B8001037BD4680BD00BF003C024000380240B5
:1045C80068670008080000200C0000202DE9B04FA3
:1045D80090B000AF00237B630023FB6300233B63A1
:1045E8000023BB63594B9B6803F00C03082B0DD0C9
:1045F800082B00F2A180002B02D0042B03D09BE0F3
:10460800534BBB639BE0534BBB6398E04F4B5B68DA
:1046180003F03F037B634D4B5B6803F48003002B7F
:1046280028D04A4B5B689B0900223B627A623B6A4E
:10463800C3F308000021474B03FB01F2002300FBF2
:1046480003F31344434AA0FB0212FA620A46BA6211
:10465800FA6A1344FB627B6B0022BB61FA61D7E9FB
:104668000623D7E90A01FCF779FA02460B461346F6
:10467800FB6353E0354B5B689B0900223B617A6121
:104688003B69C3F3080A4FF0000B52465B464FF0F4
:1046980000004FF00001590141EAD2615001024681
:1046A8000B46B2EB0A0863EB0B094FF000024FF020
:1046B80000034FEA891343EA98634FEA8812B2EB82
:1046C800080463EB09054FF000024FF00003EB000C
:1046D80043EA5473E20014461D4614EB0A033B6098
:1046E80045EB0B037B604FF000024FF00003D7E966
:1046F800004529468B02214643EA915321468A0206
:10470800104619467B6B0022BB60FA60D7E902238A
:10471800FCF724FA02460B461346FB630B4B5B6817
:104728001B0C03F0030301335B003B63FA6B3B6B29
:10473800B2FBF3F3BB6302E0054BBB6300BFBB6B8B
:1047480018464037BD46BDE8B08F00BF003802406C
:104758000024F40040787D0180B400AF034B1B684F
:104768001846BD465DF8047B704700BF080000206E
:1047780080B500AFFFF7F0FF0246054B9B689B0A28
:1047880003F007030349CB5C22FA03F3184680BD04
:10479800003802407867000880B500AFFFF7DCFFFB
:1047A8000246054B9B685B0B03F007030349CB5C90
:1047B80022FA03F3184680BD0038024078670008E3
:1047C80080B582B000AF78607B68002B01D10123EF
:1047D80041E07B6893F83D30DBB2002B06D17B6863
:1047E800002283F83C207868FDF73EFC7B680222B3
:1047F80083F83D207B681A687B68043319461046A5
:1048080000F0EAFB7B68012283F846207B680122DE
:1048180083F83E207B68012283F83F207B680122D1
:1048280083F840207B68012283F841207B680122BD
:1048380083F842207B68012283F843207B680122A9
:1048480083F844207B68012283F845207B68012295
:1048580083F83D20002318460837BD4680BD80B543
:1048680082B000AF78607B68002B01D1012341E062
:104878007B6893F83D30DBB2002B06D17B680022C1
:1048880083F83C207868FDF725FB7B68022283F8D3
:104898003D207B681A687B6804331946104600F08F
:1048A8009BFB7B68012283F846207B68012283F802
:1048B8003E207B68012283F83F207B68012283F831
:1048C80040207B68012283F841207B68012283F81D
:1048D80042207B68012283F843207B68012283F809
:1048E80044207B68012283F845207B68012283F8F5
:1048F8003D20002318460837BD4680BD80B584B0EA
:1049080000AF786039603B68002B09D17B6893F869
:104918003E30DBB2012B14BF01230023DBB222E0BF
:104928003B68042B09D17B6893F83F30DBB2012B3D
:1049380014BF01230023DBB215E03B68082B09D123
:104948007B6893F84030DBB2012B14BF01230023AE
:10495800DBB208E07B6893F84130DBB2012B14BF6F
:1049680001230023DBB2002B01D0012368E03B6860
:10497800002B04D17B68022283F83E2013E03B68B9
:10498800042B04D17B68022283F83F200BE03B68AC
:10499800082B04D17B68022283F8402003E07B685F
:1049A800022283F841207B681B6801223968184677
:1049B80000F0C4FD7B681B68234A934207D17B68DB
:1049C8001B685A6C7B681B6842F400425A647B6817
:1049D8001B681D4A934218D07B681B68B3F1804F4F
:1049E80013D07B681B68194A93420ED07B681B68FA
:1049F800174A934209D07B681B68164A934204D031
:104A08007B681B68144A934211D17B681B689B68BA
:104A180003F00703FB60FB68062B10D07B681B685C
:104A28001A687B681B6842F001021A6007E07B681D
:104A38001B681A687B681B6842F001021A60002331
:104A480018461037BD4680BD0000014000040040F4
:104A580000080040000C00400040014080B586B0CE
:104A680000AF786039607B68002B01D1012397E0A3
:104A78007B6893F83D30DBB2002B06D17B680022BF
:104A880083F83C207868FDF771FA7B68022283F886
:104A98003D207B681B689B687A68126823F4804312
:104AA80023F0070393607B681A687B680433194610
:104AB800104600F091FA7B681B689B687B617B68F5
:104AC8001B689B693B617B681B681B6AFB603B68D2
:104AD8001B687A6913437B613B6923F4407323F0B5
:104AE80003033B613B689A683B689B691B0213435D
:104AF8003A6913433B613B6923F4406323F00C0399
:104B08003B613B6923F4704323F0F0033B613B684E
:104B1800DA683B68DB691B0213433A6913433B615C
:104B28003B681B691A013B681B6A1B0313433A69FC
:104B380013433B61FB6823F02203FB60FB6823F00F
:104B48008803FB603B685A683B685B691B01134339
:104B5800FA681343FB607B681B687A699A607B6814
:104B68001B683A699A617B681B68FA681A627B68F5
:104B7800012283F846207B68012283F83E207B6867
:104B8800012283F83F207B68012283F842207B685A
:104B9800012283F843207B68012283F83D2000230B
:104BA80018461837BD4680BD80B584B000AF786020
:104BB80039607B6893F83E30FB737B6893F83F302D
:104BC800BB737B6893F842307B737B6893F8433000
:104BD8003B733B68002B10D1FB7B012B02D17B7B05
:104BE800012B01D0012369E07B68022283F83E2073
:104BF8007B68022283F8422031E03B68042B10D105
:104C0800BB7B012B02D13B7B012B01D0012355E05B
:104C18007B68022283F83F207B68022283F84320C6
:104C28001DE0FB7B012B08D1BB7B012B05D17B7BD6
:104C3800012B02D13B7B012B01D001233EE07B6895
:104C4800022283F83E207B68022283F83F207B689B
:104C5800022283F842207B68022283F843203B68C3
:104C6800002B03D03B68042B08D00FE07B681B683F
:104C780001220021184600F061FC16E07B681B68E1
:104C880001220421184600F059FC0EE07B681B68DD
:104C980001220021184600F051FC7B681B680122A4
:104CA8000421184600F04AFC00BF7B681B681A689C
:104CB8007B681B6842F001021A600023184610370F
:104CC800BD4680BD80B586B000AFF860B9607A6037
:104CD8000023FB75FB6893F83C30012B01D10223BC
:104CE800AEE0FB68012283F83C207B680C2B00F2C5
:104CF8009F8001A252F823F0354D0008394E000874
:104D0800394E0008394E0008754D0008394E000824
:104D1800394E0008394E0008B74D0008394E0008D2
:104D2800394E0008394E0008F74D0008FB681B682B
:104D3800B968184600F0DCF9FB681B689A69FB68DB
:104D48001B6842F008029A61FB681B689A69FB6855
:104D58001B6822F004029A61FB681B689969BB68AA
:104D68001A69FB681B680A439A6164E0FB681B6860
:104D7800B968184600F022FAFB681B689A69FB6854
:104D88001B6842F400629A61FB681B689A69FB68B9
:104D98001B6822F480629A61FB681B689969BB688A
:104DA8001B691A02FB681B680A439A6143E0FB68A7
:104DB8001B68B968184600F06DFAFB681B68DA6969
:104DC800FB681B6842F00802DA61FB681B68DA6955
:104DD800FB681B6822F00402DA61FB681B68D9696A
:104DE800BB681A69FB681B680A43DA6123E0FB6841
:104DF8001B68B968184600F0B7FAFB681B68DA69DF
:104E0800FB681B6842F40062DA61FB681B68DA69B8
:104E1800FB681B6822F48062DA61FB681B68D96949
:104E2800BB681B691A02FB681B680A43DA6102E067
:104E38000123FB7500BFFB68002283F83C20FB7D43
:104E480018461837BD4680BD80B584B000AF78607D
:104E580039600023FB737B6893F83C30012B01D148
:104E68000223B4E07B68012283F83C207B6802229D
:104E780083F83D207B681B689B68BB60BB6823F098
:104E88007703BB60BB6823F47F43BB607B681B6808
:104E9800BA689A603B681B68B3F5005F3ED0B3F50B
:104EA800005F00F28780B3F5805F00F08680B3F57D
:104EB800805F7FD8702B1AD0702B7BD8602B50D096
:104EC800602B77D8502B3CD0502B73D8402B58D020
:104ED800402B6FD8302B64D0302B6BD8202B60D070
:104EE800202B67D8002B5CD0102B5AD062E07B684F
:104EF80018683B6899683B685A683B68DB6800F04B
:104F0800FDFA7B681B689B68BB60BB6843F077034E
:104F1800BB607B681B68BA689A604FE07B6818685A
:104F28003B6899683B685A683B68DB6800F0E6FABA
:104F38007B681B689A687B681B6842F480429A60A9
:104F48003CE07B6818683B6859683B68DB681A4630
:104F580000F05AFA7B681B685021184600F0B3FA33
:104F68002CE07B6818683B6859683B68DB681A4620
:104F780000F079FA7B681B686021184600F0A3FAF4
:104F88001CE07B6818683B6859683B68DB681A4610
:104F980000F03AFA7B681B684021184600F093FA43
:104FA8000CE07B681A683B681B681946104600F0DD
:104FB8008AFA03E00123FB7300E000BF7B6801224B
:104FC80083F83D207B68002283F83C20FB7B184651
:104FD8001037BD4680BD000080B485B000AF786052
:104FE80039607B681B68FB607B683A4A93420FD044
:104FF8007B68B3F1804F0BD07B68374A934207D068
:105008007B68364A934203D07B68354A934208D17D
:10501800FB6823F07003FB603B685B68FA68134326
:10502800FB607B682B4A93421BD07B68B3F1804FAF
:1050380017D07B68284A934213D07B68274A93424B
:105048000FD07B68264A93420BD07B68254A93424F
:1050580007D07B68244A934203D07B68234A934253
:1050680008D1FB6823F44073FB603B68DB68FA688F
:105078001343FB60FB6823F080023B685B691343C2
:10508800FB607B68FA681A603B689A687B68DA623A
:105098003B681A687B689A627B680E4A934203D120
:1050A8003B681A697B681A637B6801225A617B68CE
:1050B8001B6903F00103012B05D17B681B6923F0F1
:1050C80001027B681A6100BF1437BD465DF8047B96
:1050D800704700BF00000140000400400008004085
:1050E800000C0040004001400044014000480140DD
:1050F80080B487B000AF786039607B681B6A7B61D9
:105108007B681B6A23F001027B681A627B685B6814
:105118003B617B689B69FB60FB6823F07003FB6065
:10512800FB6823F00303FB603B681B68FA681343C2
:10513800FB607B6923F002037B613B689B687A69AB
:1051480013437B617B681C4A93420CD17B6923F033
:1051580008037B613B68DB687A6913437B617B6981
:1051680023F004037B617B68134A934211D13B69A6
:1051780023F480733B613B6923F400733B613B6814
:105188005B693A6913433B613B689B693A6913431E
:105198003B617B683A695A607B68FA689A613B6848
:1051A8005A687B685A637B687A691A6200BF1C3741
:1051B800BD465DF8047B70470000014080B487B0AD
:1051C80000AF786039607B681B6A7B617B681B6A0B
:1051D80023F010027B681A627B685B683B617B681E
:1051E8009B69FB60FB6823F4E043FB60FB6823F4E6
:1051F8004073FB603B681B681B02FA681343FB6043
:105208007B6923F020037B613B689B681B017A69FB
:1052180013437B617B681E4A93420DD17B6923F05F
:1052280080037B613B68DB681B017A6913437B6100
:105238007B6923F040037B617B68154A934213D155
:105248003B6923F480633B613B6923F400633B6162
:105258003B685B699B003A6913433B613B689B6908
:105268009B003A6913433B617B683A695A607B68E3
:10527800FA689A613B685A687B689A637B687A69BE
:105288001A6200BF1C37BD465DF8047B704700BF3B
:105298000000014080B487B000AF786039607B6857
:1052A8001B6A7B617B681B6A23F480727B681A62C5
:1052B8007B685B683B617B68DB69FB60FB6823F0AC
:1052C8007003FB60FB6823F00303FB603B681B680B
:1052D800FA681343FB607B6923F400737B613B68C6
:1052E8009B681B027A6913437B617B681D4A934262
:1052F8000DD17B6923F400637B613B68DB681B028B
:105308007A6913437B617B6923F480637B617B68E3
:10531800144A934213D13B6923F480533B613B69A0
:1053280023F400533B613B685B691B013A691343F3
:105338003B613B689B691B013A6913433B617B688E
:105348003A695A607B68FA68DA613B685A687B6830
:10535800DA637B687A691A6200BF1C37BD465DF85C
:10536800047B70470000014080B487B000AF7860CC
:1053780039607B681B6A3B617B681B6A23F4805237
:105388007B681A627B685B687B617B68DB69FB60B2
:10539800FB6823F4E043FB60FB6823F44073FB6085
:1053A8003B681B681B02FA681343FB603B6923F4E4
:1053B80000533B613B689B681B033A6913433B619D
:1053C8007B68104A934209D17B6923F480437B614F
:1053D8003B685B699B017A6913437B617B687A69E7
:1053E8005A607B68FA68DA613B685A687B681A64B5
:1053F8007B683A691A6200BF1C37BD465DF8047BBA
:10540800704700BF0000014080B487B000AFF8606B
:10541800B9607A60FB681B6A7B61FB681B6A23F0D2
:105428000102FB681A62FB689B693B613B6923F0D8
:10543800F0033B617B681B013A6913433B617B695D
:1054480023F00A037B617A69BB6813437B61FB68BD
:105458003A699A61FB687A691A6200BF1C37BD46CF
:105468005DF8047B704780B487B000AFF860B9601E
:105478007A60FB681B6A7B61FB681B6A23F0100279
:10548800FB681A62FB689B693B613B6923F47043C4
:105498003B617B681B033A6913433B617B6923F0DB
:1054A800A0037B61BB681B017A6913437B61FB68BE
:1054B8003A699A61FB687A691A6200BF1C37BD466F
:1054C8005DF8047B704780B485B000AF78603960C0
:1054D8007B689B68FB60FB6823F07003FB603A689D
:1054E800FB68134343F00703FB607B68FA689A6024
:1054F80000BF1437BD465DF8047B704780B487B0A1
:1055080000AFF860B9607A603B60FB689B687B61BC
:105518007B6923F47F437B613B681A027B681A43EB
:10552800BB6813437A6913437B61FB687A699A60A5
:1055380000BF1C37BD465DF8047B704780B487B058
:1055480000AFF860B9607A60BB6803F01F030122FE
:1055580002FA03F37B61FB681A6A7B69DB431A4032
:10556800FB681A62FB681A6ABB6803F01F03796854
:1055780001FA03F31A43FB681A6200BF1C37BD46E1
:105588005DF8047B7047000080B485B000AF786098
:1055980039607B6893F83C30012B01D1022350E03D
:1055A8007B68012283F83C207B68022283F83D2037
:1055B8007B681B685B68FB607B681B689B68BB60DB
:1055C800FB6823F07003FB603B681B68FA681343B1
:1055D800FB607B681B68FA685A607B681B681C4A1A
:1055E800934218D07B681B68B3F1804F13D07B6857
:1055F8001B68184A93420ED07B681B68164A934270
:1056080009D07B681B68154A934204D07B681B68E5
:10561800134A93420CD1BB6823F08003BB603B68FC
:105628005B68BA681343BB607B681B68BA689A609A
:105638007B68012283F83D207B68002283F83C20A8
:10564800002318461437BD465DF8047B704700BF39
:10565800000001400004004000080040000C004029
:105668000040014080B485B000AF78603960002305
:10567800FB607B6893F83C30012B01D102233DE0AD
:105688007B68012283F83C20FB6823F0FF023B681B
:10569800DB681343FB60FB6823F440723B689B683C
:1056A8001343FB60FB6823F480623B685B68134329
:1056B800FB60FB6823F400623B681B681343FB60D4
:1056C800FB6823F480523B681B691343FB60FB684B
:1056D80023F400523B685B691343FB60FB6823F4C7
:1056E80080423B68DB691343FB607B681B68FA6890
:1056F8005A647B68002283F83C200023184614373C
:10570800BD465DF8047B704780B582B000AF786015
:105718007B68002B01D1012342E07B6893F841307C
:10572800DBB2002B06D17B68002283F84020786822
:10573800FCF7B2FD7B68242283F841207B681B6854
:10574800DA687B681B6822F40052DA60786800F037
:10575800DBFC7B681B681A697B681B6822F4904233
:105768001A617B681B685A697B681B6822F02A02E9
:105778005A617B681B68DA687B681B6842F40052D0
:10578800DA607B6800225A647B68202283F8412013
:105798007B68202283F842207B6800225A6300231A
:1057A80018460837BD4680BD80B584B000AFF860A4
:1057B800B9601346FB80FB6893F84230DBB2202BBC
:1057C80012D1BB68002B02D0FB88002B01D101232A
:1057D8000BE0FB6800221A63FB881A46B968F86870
:1057E80000F0BAFA034600E0022318461037BD4617
:1057F80080BD000080B5BAB000AF78607B681B68D8
:105808001B68C7F8E4307B681B68DB68C7F8E030C2
:105818007B681B685B69C7F8DC300023C7F8D830A1
:105828000023C7F8D430D7F8E43003F00F03C7F8E3
:10583800D830D7F8D830002B0FD1D7F8E43003F0A0
:105848002003002B09D0D7F8E03003F02003002B09
:1058580003D0786800F099FB5BE2D7F8D830002BCA
:1058680000F0DE80D7F8DC3003F00103002B06D10E
:10587800D7F8E03003F49073002B00F0D180D7F80C
:10588800E43003F00103002B0BD0D7F8E03003F429
:105898008073002B05D07B685B6C43F001027B684A
:1058A8005A64D7F8E43003F00403002B0BD0D7F880
:1058B800DC3003F00103002B05D07B685B6C43F000
:1058C80002027B685A64D7F8E43003F00203002B25
:1058D8000BD0D7F8DC3003F00103002B05D07B6830
:1058E8005B6C43F004027B685A64D7F8E43003F039
:1058F8000803002B11D0D7F8E03003F02003002B69
:1059080005D1D7F8DC3003F00103002B05D07B6804
:105918005B6C43F008027B685A647B685B6C002B05
:1059280000F0F281D7F8E43003F02003002B08D010
:10593800D7F8E03003F02003002B02D0786800F09D
:1059480024FB7B681B685B6903F04003402B0CBF9A
:1059580001230023DBB2C7F8D4307B685B6C03F00B
:105968000803002B03D1D7F8D430002B4FD0786828
:1059780000F02CFA7B681B685B6903F04003402B3E
:1059880041D17B681B681433C7F89C30D7F89C302A
:1059980053E8003FC7F89830D7F8983023F0400311
:1059A800C7F8D0307B681B681433D7F8D020C7F805
:1059B800A820C7F8A430D7F8A410D7F8A82041E841
:1059C8000023C7F8A030D7F8A030002BD9D17B68C6
:1059D800DB6B002B13D07B68DB6B7E4A1A657B6818
:1059E800DB6B1846FCF72FFF0346002B16D07B68AD
:1059F800DB6B1B6D7A68D26B104698470EE07868AF
:105A080000F094F90AE0786800F090F906E0786808
:105A180000F08CF97B6800225A6475E100BF73E1DD
:105A28007B681B6B012B40F04F81D7F8E43003F003
:105A38001003002B00F04881D7F8E03003F0100382
:105A4800002B00F041810023BB607B681B681B684A
:105A5800BB607B681B685B68BB60BB687B681B6856
:105A68005B6903F04003402B40F0B6807B68DB6B3A
:105A78001B685B68A7F8BE30B7F8BE30002B00F093
:105A880045817B689B8DB7F8BE209A4280F03E81A5
:105A98007B68B7F8BE20DA857B68DB6BDB69B3F51A
:105AA800807F00F088807B681B680C33C7F88830DB
:105AB800D7F8883053E8003FC7F88430D7F88430E7
:105AC80023F48073C7F8B8307B681B680C33D7F8A9
